:020000040800F2
:1000000000000824050B0008F5090008F70900089E
:10001000F9090008FB090008FD09000800000000BC
:10002000000000000000000000000000FF090008C0
:10003000010A000800000000030A0008050A000881
:10004000590B0008590B0008590B0008590B000800
:10005000590B0008590B0008590B0008590B0008F0
:10006000590B0008590B0008590B0008590B0008E0
:10007000590B0008590B0008590B0008590B0008D0
:10008000590B0008590B0008590B0008590B0008C0
:10009000590B0008590B0008590B0008590B0008B0
:1000A000590B0008590B0008590B0008590B0008A0
:1000B000590B0008590B0008590B0008590B000890
:1000C000590B0008590B0008590B0008590B000880
:1000D000590B0008590B0008590B0008590B000870
:1000E000590B0008590B000800000000590B0008CC
:1000F000590B0008590B0008590B0008590B000850
:10010000590B0008590B0008590B0008590B00083F
:10011000590B0008590B0008590B0008590B00082F
:10012000590B0008590B0008590B0008590B00081F
:10013000590B0008590B0008590B0008590B00080F
:1001400000000000000000000000000000000000AF
:10015000590B0008590B0008590B0008590B0008EF
:10016000590B0008590B0008590B0008590B0008DF
:10017000590B0008590B0008590B0008590B0008CF
:10018000590B0008590B0008590B0008590B0008BF
:10019000590B0008590B0008590B0008590B0008AF
:1001A000590B0008590B0008590B0008590B00089F
:1001B000590B0008590B0008590B0008590B00088F
:1001C000590B0008590B0008590B0008590B00087F
:1001D000590B0008590B0008590B0008590B00086F
:1001E000590B0008590B0008590B0008590B00085F
:1001F000590B0008590B0008590B0008590B00084F
:10020000590B0008590B0008590B0008590B00083E
:10021000590B0008590B0008590B0008590B00082E
:10022000590B0008590B0008590B0008000000008A
:10023000590B0008590B000800000000590B00087A
:10024000590B0008590B0008590B0008590B0008FE
:10025000590B0008590B0008590B0008590B0008EE
:10026000590B0008590B0008590B0008590B0008DE
:10027000590B0008590B0008590B0008000000003A
:10028000590B0008590B0008590B0008000000002A
:0802900000000000590B0008FA
:1002980080F0004002E000BF81F0004142001FBF33
:1002A8005FEA410392EA030F7FEA226C7FEA236C3C
:1002B8006AD04FEA1262D2EB1363C1BFD218414031
:1002C80048404140B8BF5B42192B88BF704710F0C7
:1002D800004F40F4000020F07F4018BF404211F06A
:1002E800004F41F4000121F07F4118BF494292EAD2
:1002F800030F3FD0A2F1010241FA03FC10EB0C00FE
:10030800C3F1200301FA03F100F0004302D549428A
:1003180060EB4000B0F5000F13D3B0F1807F06D337
:1003280040084FEA310102F10102FE2A51D2B1F12F
:10033800004F40EBC25008BF20F0010040EA030024
:100348007047490040EB0000013A28BFB0F5000FA4
:10035800EDD2B0FA80FCACF1080CB2EB0C0200FA5A
:100368000CF0AABF00EBC25052421843BCBFD040A9
:100378001843704792F0000F81F4000106BF80F423
:1003880000000132013BB5E74FEA41037FEA226CE6
:1003980018BF7FEA236C21D092EA030F04D092F0B1
:1003A800000F08BF0846704790EA010F1CBF0020E5
:1003B800704712F07F4F04D1400028BF40F0004042
:1003C800704712F100723CBF00F50000704700F062
:1003D800004343F0FE4040F4000070477FEA226289
:1003E80016BF08467FEA23630146420206BF5FEA5A
:1003F800412390EA010F40F4800070474FF000035A
:1004080004E000BF10F0004348BF40425FEA000C20
:1004180008BF704743F0964301464FF000001CE0C8
:1004280050EA010208BF70474FF000030AE000BF1E
:1004380050EA010208BF704711F0004302D540425C
:1004480061EB41015FEA010C02BF844601460020CE
:1004580043F0B64308BFA3F18053A3F50003BCFAE9
:100468008CF2083AA3EBC25310DB01FA02FC634496
:1004780000FA02FCC2F12002BCF1004F20FA02F29D
:1004880043EB020008BF20F00100704702F1200290
:1004980001FA02FCC2F1200250EA4C0021FA02F2F1
:1004A80043EB020008BF20EADC7070474FF0FF0CF6
:1004B8001CEAD0521EBF1CEAD15392EA0C0F93EAF1
:1004C8000C0F6FD01A4480EA010C400218BF5FEA93
:1004D80041211ED04FF0006343EA501043EA511106
:1004E800A0FB01310CF00040B1F5000F3EBF490000
:1004F80041EAD3715B0040EA010062F17F02FD2A04
:100508001DD8B3F1004F40EBC25008BF20F00100E6
:10051800704790F0000F0CF0004C08BF49024CEAFD
:10052800502040EA51207F3AC2BFD2F1FF0340EA8F
:10053800C250704740F400004FF00003013A5DDC00
:1005480012F1190FDCBF00F000407047C2F1000241
:10055800410021FA02F1C2F1200200FA02FC5FEA2E
:10056800310040F1000053EA4C0308BF20EADC7078
:10057800704792F0000F00F0004C02BF400010F4EA
:10058800000F013AF9D040EA0C0093F0000F01F097
:10059800004C02BF490011F4000F013BF9D041EAB9
:1005A8000C018FE70CEAD15392EA0C0F18BF93EABB
:1005B8000C0F0AD030F0004C18BF31F0004CD8D1E5
:1005C80080EA010000F00040704790F0000F17BF6C
:1005D80090F0004F084691F0000F91F0004F14D0B2
:1005E80092EA0C0F01D142020FD193EA0C0F03D10A
:1005F8004B0218BF084608D180EA010000F000400D
:1006080040F0FE4040F40000704740F0FE4040F4E7
:10061800400070474FF0FF0C1CEAD0521EBF1CEA86
:10062800D15392EA0C0F93EA0C0F69D0A2EB0302A4
:1006380080EA010C49024FEA402037D04FF080533E
:1006480043EA111143EA10130CF000408B4238BF03
:100658005B0042F17D024FF4000C8B4224BF5B1A11
:1006680040EA0C00B3EB510F24BFA3EB510340EA5F
:100678005C00B3EB910F24BFA3EB910340EA9C000D
:10068800B3EBD10F24BFA3EBD10340EADC001B017D
:1006980018BF5FEA1C1CE0D1FD2A3FF650AF8B4221
:1006A80040EBC25008BF20F0010070470CF0004C2E
:1006B8004CEA50207F32C2BFD2F1FF0340EAC25059
:1006C800704740F400004FF00003013A37E792F01A
:1006D800000F00F0004C02BF400010F4000F013A78
:1006E800F9D040EA0C0093F0000F01F0004C02BF73
:1006F800490011F4000F013BF9D041EA0C0195E7DC
:100708000CEAD15392EA0C0F08D142027FF47DAF74
:1007180093EA0C0F7FF470AF084676E793EA0C0F64
:1007280004D14B023FF44CAF08466EE730F0004C62
:1007380018BF31F0004CCAD130F000427FF45CAFF2
:1007480031F000437FF43CAF5FE700BF42000ED2B8
:10075800B2F1FE4F0BD34FF09E03B3EB126209D4F4
:100768004FEA002343F0004323FA02F070474FF0AA
:100778000000704712F1610F01D1420202D14FF01F
:10078800FF3070474FF00000704700BF0348044B2C
:10079800834202D0034B03B118477047140000246A
:1007A80014000024000000000548064B1B1AD90F4E
:1007B80001EBA301491002D0034B03B1184770475E
:1007C80014000024140000240000000010B5064C9A
:1007D800237843B9FFF7DAFF044B13B10448AFF3AA
:1007E80000800123237010BD1400002400000000C5
:1007F8008C1D000808B5054B1BB105490548AFF32A
:100808000080BDE80840FFF7CFBF00BF0000000030
:10081800180000248C1D000830B589B0002403940A
:100828000494059406940794164BD3F8E02042F0FC
:100838000202C3F8E020D3F8E02002F0020201929D
:10084800019AD3F8E02042F00102C3F8E020D3F87F
:10085800E03003F001030293029B0B4D22464FF454
:100868004051284600F0BEFB4FF440530393012348
:1008780004930594069403A9284600F09FFA09B04A
:1008880030BD00BF004402580004025810B584B0BF
:100898000024009401940294039400F045FA012383
:1008A8008DF800308DF8014001941F228DF8082042
:1008B80087228DF809208DF80A408DF80B408DF8B5
:1008C8000C308DF80D308DF80E408DF80F406846CD
:1008D80000F048FA042000F035FA04B010BD72B6F2
:1008E800FEE7000000B59DB04C22002109A801F0E8
:1008F80067F92022002101A801F062F9022000F026
:1009080081FB002300931E4BDA6A22F00102DA62AF
:10091800DB6A03F0010300931A4A936923F4404306
:1009280043F480439361936903F440430093009B2D
:10093800144B9B6913F4005FFAD002230993012337
:100948000C9340230D930023129309A800F084FB15
:1009580088B93F23019300230293039304930593DB
:10096800069307930893012101A800F0DFFF20B93F
:100978001DB05DF804FBFFF7B2FFFFF7B0FF00BF43
:10098800000400580048025808B5FFF77FFF00F040
:1009980009F9FFF7A7FFFFF73FFF0A4C4FF4805113
:1009A800204600F025FB4FF4FA7000F03BF94FF4B5
:1009B8000051204600F01CFB4FF4FA7000F032F9A9
:1009C800EBE700BF0004025882B0074BD3F8F420CD
:1009D80042F00202C3F8F420D3F8F43003F0020323
:1009E8000193019B02B0704700440258FEE7FEE7FE
:1009F800FEE7FEE7FEE770477047704708B500F06E
:100A0800FFF808BD2D4B1B6803F00F03062B06D813
:100A18002A4A136823F00F0343F007031360284B97
:100A28001A6842F001021A6000221A611968254A00
:100A38000A401A60214B1B6813F0080F06D01F4AA2
:100A4800136823F00F0343F0070313601C4B0022C5
:100A58009A61DA611A621C4999621C49D9621C4977
:100A680019635A639963DA6319645A64196821F43B
:100A7800802119601A66174B1B686FF30F03B3F1D7
:100A8800005F03D2144B0122C3F808210C4BD3F8A2
:100A9800D43013F4805F10D1094BD3F8D42042F43A
:100AA8008052C3F8D4200D4A43F2D2011160D3F822
:100AB800D42022F48052C3F8D4207047002000527A
:100AC800004402587FEDF6EA000202020000FF012E
:100AD800800201010010005C0080005100400052BB
:100AE800054AD36843F00203D360034B5B6813F4F1
:100AF800005FFAD0704700BF00480258DFF838D0CE
:100B0800FFF7EEFFFFF77EFF0C480D490D4A002363
:100B180002E0D458C4500433C4188C42F9D30A4AAA
:100B28000A4C002301E013600432A242FBD301F017
:100B380099F8FFF729FF70470000082400000024F7
:100B480014000024C01D000814000024CC01002457
:100B5800FEE70000104B1B780BB90120704710B559
:100B680004464FF47A70B0FBF3F30C4A1068B0FBFC
:100B7800F3F000F0C5F868B90F2C01D901200AE09C
:100B8800002221464FF0FF3000F0AAF8044B1C6009
:100B9800002000E0012010BD08000024040000240B
:100BA8000C00002410B5032000F088F800F0ACFD1C
:100BB8000F498B69C3F303230E4AD35C03F01F0369
:100BC800D8408B6903F00F03D35C03F01F0320FAAE
:100BD80003F3094A1360094B18600F20FFF7BAFFA7
:100BE80010B10124204610BD0446FFF7EDFEF9E7D9
:100BF80000440258A41D000800000024040000243A
:100C0800034B1B78034A11680B441360704700BFFD
:100C18000800002430000024014B1868704700BF0A
:100C28003000002438B50446FFF7F6FF0546B4F156
:100C3800FF3F02D0044B1B781C44FFF7EDFF401B1D
:100C4800A042FAD338BD00BF08000024014B186841
:100C5800000C70470010005C002804DB0901C9B2D1
:100C6800044B1954704700F00F000901C9B2024B38
:100C78001954704700E400E014ED00E000B500F0FE
:100C88000700C0F1070CBCF1040F28BF4FF0040C9B
:100C9800031D062B0FD9C31E4FF0FF3E0EFA0CF0B2
:100CA80021EA000199400EFA03FE22EA0E0241EA07
:100CB80002005DF804FB0023EEE700000649CB685C
:100CC80023F4E0631B041B0C000200F4E060034300
:100CD800024A1A43CA60704700ED00E00000FA05B6
:100CE80010B50446054BD868C0F30220FFF7C6FFCD
:100CF80001462046FFF7B0FF10BD00BF00ED00E041
:100D08000138B0F1807F0BD24FF0E0235861054ADB
:100D1800F02182F823100020986107221A61704799
:100D28000120704700ED00E0BFF35F8F044B5A6A63
:100D380022F480325A620022C3F89420704700BF20
:100D480000ED00E040F00100054BC3F894005A6A3A
:100D580042F480325A62BFF34F8FBFF36F8F7047F0
:100D680000ED00E04378144AC2F89830D2F8A03079
:100D780023F00103C2F8A0304368C2F89C30017B1D
:100D8800C37A1B0643EA0173817A43EAC143417B74
:100D980043EA8143817B43EA4143C17B43EA014300
:100DA800417A43EA0123017A43EA410301780B437C
:100DB800C2F8A030704700BF00ED00E070B582B007
:100DC80000236EE085685E000324B44025EA04052C
:100DD800CC68B4402C438460456825EA0C054C680F
:100DE800C4F300149C402C4344606DE0DD080835D2
:100DF80050F8254003F0070C4FEA8C0C4FF00F0E0B
:100E08000EFA0CFE24EA0E0E0C6904FA0CF444EAFD
:100E18000E0440F825406FE0092400E0002404FA9D
:100E28000EF42C430CF1020C6B4D45F82C404FF09E
:100E3800B0442568D44325EA0206D1F804C01CF45E
:100E4800801F01D042EA05064FF0B0452E606D685C
:100E580004EA0506D1F804C01CF4001F01D042EAD8
:100E680005064FF0B0456E60D5F8845004EA0506D3
:100E7800D1F804C01CF4003F01D042EA05064FF047
:100E8800B045C5F88460D5F880502C404E6816F4FB
:100E9800803F01D042EA05044FF0B042C2F88040DA
:100EA80001330A6832FA03F400F093804FF0010C22
:100EB8000CFA03FC1CEA0202F2D04C6804F00304AA
:100EC800013C012C7FF67EAF4C6804F00304032C30
:100ED8000CD0C4685D004FF0030C0CFA05FC24EA42
:100EE8000C0C8C68AC4044EA0C04C4604C6804F0F8
:100EF8000304022C3FF47AAF04684FEA430E4FF024
:100F0800030C0CFA0EFC24EA0C0C4C6804F00304E5
:100F180004FA0EF444EA0C0404604C6814F4403FEC
:100F2800BED02E4CD4F8F45045F00205C4F8F45065
:100F3800D4F8F44004F002040194019C4FEA930CA5
:100F48000CF10205244C54F8255003F0030E4FEA27
:100F58008E0E0F2404FA0EF425EA0405204CA04254
:100F68003FF45CAF04F58064A04222D004F58064AD
:100F7800A04220D004F58064A0421ED004F580640D
:100F8800A0421CD004F58064A0421AD004F5806405
:100F9800A04218D004F58064A04216D004F58064FD
:100FA800A04214D004F58064A0423FF435AF0A246F
:100FB80035E7012433E7022431E703242FE704242B
:100FC8002DE705242BE7062429E7072427E708242B
:100FD80025E702B070BD00BF000400580044025865
:100FE800000002580AB181617047090481617047A5
:100FF800436901EA030221EA030141EA02418161EE
:1010080070470000134BDB6813F0040F07D1114B36
:10101800DB6803F0070383421AD00120704710B53C
:101028000C4AD36823F007030343D360FFF7F4FDAA
:101038000446084B5B6813F4005F07D1FFF7ECFD2B
:10104800001BB0F57A7FF4D9012000E0002010BD24
:101058000020704700480258002800F0398338B54E
:101068000446036813F0010F25D0944A136903F06E
:101078003803926A102B15D0182B0FD06368B3F57C
:10108800803F3FD0002B53D18C4B1A6822F480321A
:101098001A601A6822F480221A6038E002F003020B
:1010A800022AEBD1854B1B6813F4003F03D0636819
:1010B800002B00F00F83236813F0020F00F0A180CB
:1010C8007E4A1369926A13F038035AD0182B55D008
:1010D800E368002B00F0DE8078490A6822F01902E4
:1010E80013430B60FFF798FD0546744B1B6813F01C
:1010F800040F40F0AD80FFF78FFD401B0228F4D9A4
:101108000320EEE26D4A136843F48033136063688A
:101118002BB3FFF781FD0546684B1B6813F4003FAE
:10112800C9D1FFF779FD401B6428F5D90320D8E21F
:10113800B3F5A02F09D0614B1A6822F480321A60E7
:101148001A6822F480221A60E1E75C4B1A6842F4BC
:1011580080221A601A6842F480321A60D7E7FFF7D3
:101168005BFD0546554B1B6813F4003FA3D0FFF702
:1011780053FD401B6428F5D90320B2E212F0030F97
:10118800A6D14E4B1B6813F0040F03D0E368002B65
:1011980000F0A282494A136823F01903E1680B435F
:1011A8001360FFF739FD0546444B1B6813F0040F25
:1011B80006D1FFF731FD401B0228F5D9032090E244
:1011C800FFF744FD41F20303984212D82269402AEE
:1011D80007D03A494B6823F47C3343EA02334B6027
:1011E8000FE0364A536823F47C3343F400335360EA
:1011F80007E0324A536823F0FE43216943EA01635A
:101208005360236813F0100F00F088802B4A13698D
:1012180003F03803926A082B56D0182B50D0E36994
:10122800002B00F0B880254A136843F08003136050
:10123800FFF7F2FC0546214B1B6813F4807F40F052
:101248008880FFF7E9FC401B0228F4D9032048E214
:10125800FFF7FCFC41F20303984212D82269402AA6
:1012680007D016494B6823F47C3343EA02334B60BA
:10127800C7E7124A536823F47C3343F400335360BE
:10128800BFE70E4A536823F0FE43216943EA01632E
:101298005360B6E7094A136823F001031360FFF7A8
:1012A800BBFC0546054B1B6813F0040FA9D0FFF7DC
:1012B800B3FC401B0228F5D9032012E2004402586F
:1012C80002F00302012AAAD1A14B1B6813F4807F04
:1012D80003D0E369802B40F00182FFF7B7FC41F2AD
:1012E8000303984212D8226A202A07D098494B68EB
:1012F80023F0F84343EA82634B600FE0944A536853
:1013080023F0F84343F08043536007E0904AD368E2
:1013180023F07C53216A43EA0163D360236813F006
:10132800080F60D06369002B49D0894A536F43F096
:1013380001035367FFF770FC0546854B5B6F13F09D
:10134800020F50D1FFF768FC401B0228F5D9032093
:10135800C7E1FFF77BFC41F20303984212D8226AE7
:10136800202A07D07A494B6823F0F84343EA82637E
:101378004B60D3E7764A536823F0F84343F0804341
:101388005360CBE7724AD36823F07C53216A43EA5F
:101398000163D360C2E76E4A136823F080031360C9
:1013A800FFF73AFC05466A4B1B6813F4807FB5D0FB
:1013B800FFF732FC401B0228F5D9032091E1644A6B
:1013C800536F23F001035367FFF726FC0546604B74
:1013D8005B6F13F0020F06D0FFF71EFC401B0228BC
:1013E800F5D903207DE1236813F0200F29D0A369E4
:1013F8009BB1574A136843F480531360FFF70CFC02
:101408000546534B1B6813F4005F1AD1FFF704FC21
:10141800401B0228F5D9032063E14D4A136823F4E1
:1014280080531360FFF7F8FB0546494B1B6813F41C
:10143800005F06D0FFF7F0FB401B0228F5D9032018
:101448004FE1236813F0040F21D1636A002B00F0E9
:1014580047813F4A126902F03802182A00F0EE80EC
:10146800022B79D03A4A136823F080731360FFF790
:10147800D3FB0446364B1B6813F0007F00F0DC807A
:10148800FFF7CAFB001B0228F4D9032029E1314ADF
:10149800136843F480731360FFF7BEFB05462D4BBA
:1014A8001B6813F4807F06D1FFF7B6FB401B642846
:1014B800F5D9032015E1A368012B0AD00BBB244BF7
:1014C8001A6F22F001021A671A6F22F004021A67D3
:1014D80004E01F4A136F43F001031367A36833B393
:1014E800FFF79AFB05461A4B1B6F13F0020FACD19E
:1014F800FFF792FB401B41F288339842F3D903204F
:10150800EFE0052B09D0124B1A6F22F001021A677F
:101518001A6F22F004021A67E0E70D4B1A6F42F0C7
:1015280004021A671A6F42F001021A67D6E7FFF73A
:1015380073FB0546064B1B6F13F0020F85D0FFF7B0
:101548006BFB401B41F288339842F3D90320C8E073
:101558000044025800480258694A136823F080730F
:101568001360FFF759FB0546654B1B6813F0007FB6
:1015780006D0FFF751FB401B0228F5D90320B0E045
:101588005F4B996A5F4A0A40A16AE06A41EA001122
:101598000A439A62226B013AC2F30802616B01396D
:1015A800490289B20A43A16B0139090401F4FE0119
:1015B8000A43E16B0139090601F0FE410A431A6347
:1015C800DA6A22F00102DA625A6B6FF3CF02A16C79
:1015D80042EAC1025A63DA6A22F00C02216C0A4319
:1015E800DA62DA6A22F00202616C0A43DA62DA6AC3
:1015F80042F48032DA62DA6A42F40032DA62DA6A93
:1016080042F48022DA62DA6A42F00102DA621A6887
:1016180042F080721A60FFF7FFFA0446384B1B68E5
:1016280013F0007F06D1FFF7F7FA001B0228F5D95F
:10163800032056E0002054E0002052E0304A916A2E
:10164800106B012B4ED001F00303A26A93424BD1D9
:10165800C1F30511E36A994248D1C0F30802236B2C
:10166800013B9A4244D1C0F34622636B013B9A4244
:1016780040D1C0F30642A36B013B9A423CD1C0F370
:101688000660E36B013B984238D11D4B5B6BC3F39B
:10169800CC03A26C9A4201D1002022E0184AD36AF6
:1016A80023F00103D362FFF7B7FA0546FFF7B4FA50
:1016B800A842FBD0124A536B6FF3CF03A16C43EAE5
:1016C800C1035363D36A43F00103D362002008E0E7
:1016D80001207047012004E0012002E0012000E021
:1016E800002038BD0120FCE70120FAE70120F8E7D7
:1016F8000120F6E70120F4E70120F2E70120F0E7F6
:10170800004402580CFCFFFFF8B5814B1B6903F03D
:101718003803102B00F0F480182B0FD0002B40F06A
:10172800F2807B4B1B6813F0200F00F0EE80784BA3
:101738001B68C3F3C103774CDC40E2E0744B9D6A3D
:1017480005F003059C6AC4F30514D86A00F001008B
:101758005B6BC3F3CC0303FB00F0FEF74FFE0646BA
:10176800002C00F0CE80012D56D0022D00F0848090
:10177800002D40F0A380664B1B6813F0200F29D082
:10178800634F3B68C3F3C1036248D840FEF736FE97
:1017980005462046FEF732FE01462846FEF73AFF88
:1017A8000446386BC0F30800FEF728FE05464FF0E4
:1017B80064513046FEF77AFE01462846FEF76EFD74
:1017C8004FF07E51FEF76AFD01462046FEF76EFE99
:1017D800044642E02046FEF711FE01464E48FEF759
:1017E80019FF04464A4B186BC0F30800FEF706FEC3
:1017F80005464FF064513046FEF758FE014628462C
:10180800FEF74CFD4FF07E51FEF748FD014620469D
:10181800FEF74CFE044620E02046FEF7EFFD0146A9
:101828003E48FEF7F7FE0446394B186BC0F3080034
:10183800FEF7E4FD05464FF064513046FEF736FEEC
:1018480001462846FEF72AFD4FF07E51FEF726FD99
:1018580001462046FEF72AFE04462D4B1B6BC3F3B8
:101868004623581CFEF7CAFD01462046FEF7D2FE65
:10187800FEF76CFF044644E02046FEF7BFFD014634
:101888002748FEF7C7FE0446214B186BC0F3080033
:10189800FEF7B4FD05464FF064513046FEF706FEEC
:1018A80001462846FEF7FAFC4FF07E51FEF7F6FC9B
:1018B80001462046FEF7FAFD0446CEE72046FEF72D
:1018C8009DFD01461548FEF7A5FE0446104B186B12
:1018D800C0F30800FEF792FD05464FF0645130460C
:1018E800FEF7E4FD01462846FEF7D8FC4FF07E518E
:1018F800FEF7D4FC01462046FEF7D8FD0446ACE7C7
:10190800084C2046F8BD084CFBE7024CF9E700BF3D
:10191800004402580090D0030024744C0024744AF8
:1019280020BCBE4B40787D0100093D00002800F036
:10193800328170B50D4604469B4B1B6803F00F03BC
:101948008B420BD2984A136823F00F030B431360A2
:10195800136803F00F038B4240F01F81236813F0D4
:10196800040F0CD02269914B9B6903F070039A42D3
:1019780005D98E498B6923F070031A438A6123685D
:1019880013F0080F0CD06269884BDB6903F0700311
:101998009A4205D98549CB6923F070031A43CA6175
:1019A800236813F0100F0CD0A269804BDB6903F495
:1019B800E0639A4205D97D49CB6923F4E0631A4371
:1019C800CA61236813F0200F0CD0E269774B1B6AB9
:1019D80003F070039A4205D974490B6A23F0700327
:1019E8001A430A62236813F0020F0CD0E2686F4BA7
:1019F8009B6903F00F039A4205D96C498B6923F060
:101A08000F031A438A61236813F0010F41D0674A14
:101A1800936923F47063A1680B4393616368022B95
:101A28000AD0032B27D0012B2CD0604A126812F061
:101A3800040F06D10120ADE0126812F4003F00F057
:101A4800AE805A490A6922F0070213430B61FFF777
:101A5800E3F80646554B1B6903F038036268B3EB9D
:101A6800C20F16D0FFF7D8F8801B41F2883398428E
:101A7800F0D903208EE04D4A126812F0007FE0D1C1
:101A8800012087E0494A126812F4807FD9D10120E9
:101A980080E0236813F0020F0CD0E268434B9B6987
:101AA80003F00F039A4205D240498B6923F00F03D4
:101AB8001A438A613C4B1B6803F00F03AB420AD9F7
:101AC800394A136823F00F032B431360136803F09C
:101AD8000F03AB4265D1236813F0040F0CD02269C1
:101AE800324B9B6903F070039A4205D22F498B69E8
:101AF80023F070031A438A61236813F0080F0CD08F
:101B080062692A4BDB6903F070039A4205D22749C0
:101B1800CB6923F070031A43CA61236813F0100FCE
:101B28000CD0A269214BDB6903F4E0639A4205D229
:101B38001E49CB6923F4E0631A43CA61236813F092
:101B4800200F0CD0E269194B1B6A03F070039A420C
:101B580005D216490B6A23F070031A430A62FFF78D
:101B6800D3FD12498B69C3F30323114AD35C03F0F5
:101B78001F03D8408B6903F00F03D35C03F01F03E6
:101B880020FA03F30B4A13600B4B18600B4B1868D1
:101B9800FEF7E0FF70BD012070470120FAE7012041
:101BA800F8E70120F6E700BF002000520044025881
:101BB800A41D000800000024040000240C000024D8
:101BC800830730B547D0541E002A3ED0CAB2034618
:101BD80001E0013C39D303F8012B9D07F9D1032C0F
:101BE8002CD9CDB205EB05250F2C05EB054535D9CC
:101BF800A4F1100222F00F0C03F1100EE6444FEA94
:101C0800121C1A46C2E90055C2E902551032724543
:101C1800F8D10CF1010214F00C0F03EB021204F0DE
:101C28000F0C13D0ACF1040323F003030433134463
:101C380042F8045B9342FBD10CF003042CB1C9B207
:101C48001C4403F8011BA342FBD130BD6446134674
:101C5800002CF4D1F9E703461446C0E71A46A44617
:101C6800E0E700BF70B50F4B0F4DAB42A3EB050685
:101C780007D0B610002455F8043B01349847A64213
:101C8800F9D800F07FF8094D094B5E1BAB424FEACB
:101C9800A60606D0002455F8043B01349847A6420E
:101CA800F9D870BDB41D0008B41D0008B41D0008A3
:101CB800BC1D0008704700BF704700BF024B13B13E
:101CC800024800F005B8704700000000E51C000855
:101CD800002301461A46184600F014B838B5074DD7
:101CE800074C2C1BA41005D0013C55F8043D98471F
:101CF800002CF9D1BDE8384000F04AB8C01D0008F2
:101D0800BC1D00082DE9F8431B4D06462868984677
:101D18000F469146FFF7CEFF184B1C681CB3286886
:101D280065681F2D22DC4EB96B1C0235636044F8D0
:101D38002570FFF7C1FF0020BDE8F88304EB85019B
:101D48000123C1F88890D4F88821AB401A43022EA9
:101D5800C4F88821C1F80881E6D1D4F88C211A4347
:101D6800C4F88C21E0E7064C1C60D8E7FFF7A4FF15
:101D78004FF0FF30E0E700BF1000002438000024D7
:101D88003C000024F8B500BFF8BC08BC9E4670476C
:0C1D9800F8B500BFF8BC08BC9E467047C0
:101DA40000000000010203040102030406070809FD
:081DB400C51C0008FD07000832
:041DBC00D50700083F
:101DC0000090D0030090D00301000000100000003C
:041DD00034000024B7
:0400000508000B05DF
:00000001FF
